{
  "contractName": "Voting",
  "abi": [
    {
      "constant": true,
      "inputs": [
        {
          "internalType": "uint256",
          "name": "",
          "type": "uint256"
        }
      ],
      "name": "locations",
      "outputs": [
        {
          "internalType": "address",
          "name": "",
          "type": "address"
        }
      ],
      "payable": false,
      "stateMutability": "view",
      "type": "function"
    },
    {
      "constant": false,
      "inputs": [
        {
          "internalType": "uint256",
          "name": "locationId",
          "type": "uint256"
        }
      ],
      "name": "vote",
      "outputs": [
        {
          "internalType": "uint256",
          "name": "",
          "type": "uint256"
        }
      ],
      "payable": false,
      "stateMutability": "nonpayable",
      "type": "function"
    },
    {
      "constant": true,
      "inputs": [],
      "name": "getLocations",
      "outputs": [
        {
          "internalType": "address[16]",
          "name": "",
          "type": "address[16]"
        }
      ],
      "payable": false,
      "stateMutability": "view",
      "type": "function"
    }
  ],
  "bytecode": "0x608060405234801561001057600080fd5b506102b9806100206000396000f3fe608060405234801561001057600080fd5b50600436106100415760003560e01c80630121b93f14610046578063ab63616f14610088578063b9e0db35146100ce575b600080fd5b6100726004803603602081101561005c57600080fd5b810190808035906020019092919050505061013c565b6040518082815260200191505060405180910390f35b6100906101ad565b6040518082601060200280838360005b838110156100bb5780820151818401526020810190506100a0565b5050505090500191505060405180910390f35b6100fa600480360360208110156100e457600080fd5b810190808035906020019092919050505061022e565b604051808273ffffffffffffffffffffffffffffffffffffffff1673ffffffffffffffffffffffffffffffffffffffff16815260200191505060405180910390f35b600080821015801561014f5750600f8211155b61015857600080fd5b336000836010811061016657fe5b0160006101000a81548173ffffffffffffffffffffffffffffffffffffffff021916908373ffffffffffffffffffffffffffffffffffffffff160217905550819050919050565b6101b5610261565b6000601080602002604051908101604052809291908260108015610224576020028201915b8160009054906101000a900473ffffffffffffffffffffffffffffffffffffffff1673ffffffffffffffffffffffffffffffffffffffff16815260200190600101908083116101da575b5050505050905090565b6000816010811061023b57fe5b016000915054906101000a900473ffffffffffffffffffffffffffffffffffffffff1681565b60405180610200016040528060109060208202803883398082019150509050509056fea265627a7a723158209d7141701852b3960593e101a449b36c9e92b69d6416e73071a6bac4503874e964736f6c63430005100032",
  "source": "pragma solidity >=0.4.22 <0.8.0;\n\ncontract Voting {\n    address[16] public locations;\n    // объявили переменную \"locations\". Указали ее тип и длину.\n    // Тип = address. (Solidity has a unique type called an address. It is array of Ethereum addresses)\n    // Длина этого массива составляет 16\n\n    function vote(uint256 locationId) public returns (uint256) {\n       // объявили функцию с названием vote\n       // uint256 = функция принимает на вход locationId, уточнено что тип = integer\n       // функция возвращает тоже integer\n       // что такое 256 не поняла пока\n\n        require(locationId >= 0 && locationId <= 15);\n           // We use the require statement to ensure the ID is within range of our locations array.\n           // У нас 16 локаций на сайте. При счете с нуля получаем 15.\n\n        locations[locationId] = msg.sender;\n          // If the ID is in range ^, we then add the address that made the call to our locations array.\n          // The address of the person or smart contract who called this function is denoted\n          // (обозначается, указывается) by msg.sender.\n\n        return locationId;\n          // Finally, we return the locationId provided as a confirmation.\n    }\n\n    function getLocations() public view returns (address[16] memory) {\n        return locations;\n\n        // объявили функцию getLocations\n        // она будет возвращать the entire array - значение переменной location, которую объявляли ранее\n        // Be sure to specify the return type, in this case the type for locations is address[16] memory.\n        // memory gives the location in memory for the variable.\n        // 'view' means that the function will not modify the state of the contract.\n\n    }\n}",
  "sourcePath": "/Users/dianasaratov/Documents/tau-blockchain-course-1.0/contracts/Voting.sol",
  "compiler": {
    "name": "solc",
    "version": "0.5.16+commit.9c3226ce.Emscripten.clang"
  },
  "schemaVersion": "3.4.13",
  "updatedAt": "2023-05-10T13:41:36.968Z",
  "networkType": "ethereum",
  "devdoc": {
    "methods": {}
  },
  "userdoc": {
    "methods": {}
  }
}